{
	"018 - globalVariable.sol": {
		"Structure": {
			"abi": [
				{
					"inputs": [],
					"name": "demo",
					"outputs": [
						{
							"internalType": "uint256",
							"name": "block_no",
							"type": "uint256"
						},
						{
							"internalType": "uint256",
							"name": "timestamp",
							"type": "uint256"
						},
						{
							"internalType": "address",
							"name": "msgSender",
							"type": "address"
						},
						{
							"internalType": "uint256",
							"name": "difficulty",
							"type": "uint256"
						},
						{
							"internalType": "uint256",
							"name": "gasLimit",
							"type": "uint256"
						},
						{
							"internalType": "address payable",
							"name": "coin",
							"type": "address"
						}
					],
					"stateMutability": "view",
					"type": "function"
				}
			],
			"devdoc": {
				"kind": "dev",
				"methods": {},
				"version": 1
			},
			"evm": {
				"assembly": "    /* \"018 - globalVariable.sol\":75:357  contract Structure{... */\n  mstore(0x40, 0x80)\n  callvalue\n  dup1\n  iszero\n  tag_1\n  jumpi\n  revert(0x00, 0x00)\ntag_1:\n  pop\n  dataSize(sub_0)\n  dup1\n  dataOffset(sub_0)\n  0x00\n  codecopy\n  0x00\n  return\nstop\n\nsub_0: assembly {\n        /* \"018 - globalVariable.sol\":75:357  contract Structure{... */\n      mstore(0x40, 0x80)\n      callvalue\n      dup1\n      iszero\n      tag_1\n      jumpi\n      revert(0x00, 0x00)\n    tag_1:\n      pop\n      jumpi(tag_2, lt(calldatasize, 0x04))\n      shr(0xe0, calldataload(0x00))\n      dup1\n      0x01725a0b\n      eq\n      tag_3\n      jumpi\n    tag_2:\n      revert(0x00, 0x00)\n        /* \"018 - globalVariable.sol\":97:354  function demo() public view returns(uint block_no, uint timestamp, address msgSender, uint difficulty, uint gasLimit, address payable coin){... */\n    tag_3:\n      tag_4\n      tag_5\n      jump\t// in\n    tag_4:\n      mload(0x40)\n      tag_6\n      swap7\n      swap6\n      swap5\n      swap4\n      swap3\n      swap2\n      swap1\n      tag_7\n      jump\t// in\n    tag_6:\n      mload(0x40)\n      dup1\n      swap2\n      sub\n      swap1\n      return\n    tag_5:\n        /* \"018 - globalVariable.sol\":133:146  uint block_no */\n      0x00\n        /* \"018 - globalVariable.sol\":148:162  uint timestamp */\n      0x00\n        /* \"018 - globalVariable.sol\":164:181  address msgSender */\n      0x00\n        /* \"018 - globalVariable.sol\":183:198  uint difficulty */\n      0x00\n        /* \"018 - globalVariable.sol\":200:213  uint gasLimit */\n      0x00\n        /* \"018 - globalVariable.sol\":215:235  address payable coin */\n      0x00\n        /* \"018 - globalVariable.sol\":254:266  block.number */\n      number\n        /* \"018 - globalVariable.sol\":268:283  block.timestamp */\n      timestamp\n        /* \"018 - globalVariable.sol\":285:295  msg.sender */\n      caller\n        /* \"018 - globalVariable.sol\":297:313  block.prevrandao */\n      prevrandao\n        /* \"018 - globalVariable.sol\":315:329  block.gaslimit */\n      gaslimit\n        /* \"018 - globalVariable.sol\":331:345  block.coinbase */\n      coinbase\n        /* \"018 - globalVariable.sol\":247:346  return(block.number, block.timestamp, msg.sender, block.prevrandao, block.gaslimit, block.coinbase) */\n      swap6\n      pop\n      swap6\n      pop\n      swap6\n      pop\n      swap6\n      pop\n      swap6\n      pop\n      swap6\n      pop\n        /* \"018 - globalVariable.sol\":97:354  function demo() public view returns(uint block_no, uint timestamp, address msgSender, uint difficulty, uint gasLimit, address payable coin){... */\n      swap1\n      swap2\n      swap3\n      swap4\n      swap5\n      swap6\n      jump\t// out\n        /* \"#utility.yul\":7:84   */\n    tag_9:\n        /* \"#utility.yul\":44:51   */\n      0x00\n        /* \"#utility.yul\":73:78   */\n      dup2\n        /* \"#utility.yul\":62:78   */\n      swap1\n      pop\n        /* \"#utility.yul\":7:84   */\n      swap2\n      swap1\n      pop\n      jump\t// out\n        /* \"#utility.yul\":90:208   */\n    tag_10:\n        /* \"#utility.yul\":177:201   */\n      tag_19\n        /* \"#utility.yul\":195:200   */\n      dup2\n        /* \"#utility.yul\":177:201   */\n      tag_9\n      jump\t// in\n    tag_19:\n        /* \"#utility.yul\":172:175   */\n      dup3\n        /* \"#utility.yul\":165:202   */\n      mstore\n        /* \"#utility.yul\":90:208   */\n      pop\n      pop\n      jump\t// out\n        /* \"#utility.yul\":214:340   */\n    tag_11:\n        /* \"#utility.yul\":251:258   */\n      0x00\n        /* \"#utility.yul\":291:333   */\n      0xffffffffffffffffffffffffffffffffffffffff\n        /* \"#utility.yul\":284:289   */\n      dup3\n        /* \"#utility.yul\":280:334   */\n      and\n        /* \"#utility.yul\":269:334   */\n      swap1\n      pop\n        /* \"#utility.yul\":214:340   */\n      swap2\n      swap1\n      pop\n      jump\t// out\n        /* \"#utility.yul\":346:442   */\n    tag_12:\n        /* \"#utility.yul\":383:390   */\n      0x00\n        /* \"#utility.yul\":412:436   */\n      tag_22\n        /* \"#utility.yul\":430:435   */\n      dup3\n        /* \"#utility.yul\":412:436   */\n      tag_11\n      jump\t// in\n    tag_22:\n        /* \"#utility.yul\":401:436   */\n      swap1\n      pop\n        /* \"#utility.yul\":346:442   */\n      swap2\n      swap1\n      pop\n      jump\t// out\n        /* \"#utility.yul\":448:566   */\n    tag_13:\n        /* \"#utility.yul\":535:559   */\n      tag_24\n        /* \"#utility.yul\":553:558   */\n      dup2\n        /* \"#utility.yul\":535:559   */\n      tag_12\n      jump\t// in\n    tag_24:\n        /* \"#utility.yul\":530:533   */\n      dup3\n        /* \"#utility.yul\":523:560   */\n      mstore\n        /* \"#utility.yul\":448:566   */\n      pop\n      pop\n      jump\t// out\n        /* \"#utility.yul\":572:676   */\n    tag_14:\n        /* \"#utility.yul\":617:624   */\n      0x00\n        /* \"#utility.yul\":646:670   */\n      tag_26\n        /* \"#utility.yul\":664:669   */\n      dup3\n        /* \"#utility.yul\":646:670   */\n      tag_11\n      jump\t// in\n    tag_26:\n        /* \"#utility.yul\":635:670   */\n      swap1\n      pop\n        /* \"#utility.yul\":572:676   */\n      swap2\n      swap1\n      pop\n      jump\t// out\n        /* \"#utility.yul\":682:824   */\n    tag_15:\n        /* \"#utility.yul\":785:817   */\n      tag_28\n        /* \"#utility.yul\":811:816   */\n      dup2\n        /* \"#utility.yul\":785:817   */\n      tag_14\n      jump\t// in\n    tag_28:\n        /* \"#utility.yul\":780:783   */\n      dup3\n        /* \"#utility.yul\":773:818   */\n      mstore\n        /* \"#utility.yul\":682:824   */\n      pop\n      pop\n      jump\t// out\n        /* \"#utility.yul\":830:1637   */\n    tag_7:\n        /* \"#utility.yul\":1079:1083   */\n      0x00\n        /* \"#utility.yul\":1117:1120   */\n      0xc0\n        /* \"#utility.yul\":1106:1115   */\n      dup3\n        /* \"#utility.yul\":1102:1121   */\n      add\n        /* \"#utility.yul\":1094:1121   */\n      swap1\n      pop\n        /* \"#utility.yul\":1131:1202   */\n      tag_30\n        /* \"#utility.yul\":1199:1200   */\n      0x00\n        /* \"#utility.yul\":1188:1197   */\n      dup4\n        /* \"#utility.yul\":1184:1201   */\n      add\n        /* \"#utility.yul\":1175:1181   */\n      dup10\n        /* \"#utility.yul\":1131:1202   */\n      tag_10\n      jump\t// in\n    tag_30:\n        /* \"#utility.yul\":1212:1284   */\n      tag_31\n        /* \"#utility.yul\":1280:1282   */\n      0x20\n        /* \"#utility.yul\":1269:1278   */\n      dup4\n        /* \"#utility.yul\":1265:1283   */\n      add\n        /* \"#utility.yul\":1256:1262   */\n      dup9\n        /* \"#utility.yul\":1212:1284   */\n      tag_10\n      jump\t// in\n    tag_31:\n        /* \"#utility.yul\":1294:1366   */\n      tag_32\n        /* \"#utility.yul\":1362:1364   */\n      0x40\n        /* \"#utility.yul\":1351:1360   */\n      dup4\n        /* \"#utility.yul\":1347:1365   */\n      add\n        /* \"#utility.yul\":1338:1344   */\n      dup8\n        /* \"#utility.yul\":1294:1366   */\n      tag_13\n      jump\t// in\n    tag_32:\n        /* \"#utility.yul\":1376:1448   */\n      tag_33\n        /* \"#utility.yul\":1444:1446   */\n      0x60\n        /* \"#utility.yul\":1433:1442   */\n      dup4\n        /* \"#utility.yul\":1429:1447   */\n      add\n        /* \"#utility.yul\":1420:1426   */\n      dup7\n        /* \"#utility.yul\":1376:1448   */\n      tag_10\n      jump\t// in\n    tag_33:\n        /* \"#utility.yul\":1458:1531   */\n      tag_34\n        /* \"#utility.yul\":1526:1529   */\n      0x80\n        /* \"#utility.yul\":1515:1524   */\n      dup4\n        /* \"#utility.yul\":1511:1530   */\n      add\n        /* \"#utility.yul\":1502:1508   */\n      dup6\n        /* \"#utility.yul\":1458:1531   */\n      tag_10\n      jump\t// in\n    tag_34:\n        /* \"#utility.yul\":1541:1630   */\n      tag_35\n        /* \"#utility.yul\":1625:1628   */\n      0xa0\n        /* \"#utility.yul\":1614:1623   */\n      dup4\n        /* \"#utility.yul\":1610:1629   */\n      add\n        /* \"#utility.yul\":1601:1607   */\n      dup5\n        /* \"#utility.yul\":1541:1630   */\n      tag_15\n      jump\t// in\n    tag_35:\n        /* \"#utility.yul\":830:1637   */\n      swap8\n      swap7\n      pop\n      pop\n      pop\n      pop\n      pop\n      pop\n      pop\n      jump\t// out\n\n    auxdata: 0xa264697066735822122057fa624653cd65506f9dbf0c956905f4aa3777a699ce9a3b95e093f1eb08fa9764736f6c634300081e0033\n}\n",
				"bytecode": {
					"linkReferences": {},
					"object": "6080604052348015600e575f5ffd5b5061017c8061001c5f395ff3fe608060405234801561000f575f5ffd5b5060043610610029575f3560e01c806301725a0b1461002d575b5f5ffd5b610035610050565b604051610047969594939291906100e7565b60405180910390f35b5f5f5f5f5f5f434233444541955095509550955095509550909192939495565b5f819050919050565b61008281610070565b82525050565b5f73ffffffffffffffffffffffffffffffffffffffff82169050919050565b5f6100b182610088565b9050919050565b6100c1816100a7565b82525050565b5f6100d182610088565b9050919050565b6100e1816100c7565b82525050565b5f60c0820190506100fa5f830189610079565b6101076020830188610079565b61011460408301876100b8565b6101216060830186610079565b61012e6080830185610079565b61013b60a08301846100d8565b97965050505050505056fea264697066735822122057fa624653cd65506f9dbf0c956905f4aa3777a699ce9a3b95e093f1eb08fa9764736f6c634300081e0033",
					"opcodes": "PUSH1 0x80 PUSH1 0x40 MSTORE CALLVALUE DUP1 ISZERO PUSH1 0xE JUMPI PUSH0 PUSH0 REVERT JUMPDEST POP PUSH2 0x17C DUP1 PUSH2 0x1C PUSH0 CODECOPY PUSH0 RETURN INVALID PUSH1 0x80 PUSH1 0x40 MSTORE CALLVALUE DUP1 ISZERO PUSH2 0xF JUMPI PUSH0 PUSH0 REVERT JUMPDEST POP PUSH1 0x4 CALLDATASIZE LT PUSH2 0x29 JUMPI PUSH0 CALLDATALOAD PUSH1 0xE0 SHR DUP1 PUSH4 0x1725A0B EQ PUSH2 0x2D JUMPI JUMPDEST PUSH0 PUSH0 REVERT JUMPDEST PUSH2 0x35 PUSH2 0x50 JUMP JUMPDEST PUSH1 0x40 MLOAD PUSH2 0x47 SWAP7 SWAP6 SWAP5 SWAP4 SWAP3 SWAP2 SWAP1 PUSH2 0xE7 JUMP JUMPDEST PUSH1 0x40 MLOAD DUP1 SWAP2 SUB SWAP1 RETURN JUMPDEST PUSH0 PUSH0 PUSH0 PUSH0 PUSH0 PUSH0 NUMBER TIMESTAMP CALLER PREVRANDAO GASLIMIT COINBASE SWAP6 POP SWAP6 POP SWAP6 POP SWAP6 POP SWAP6 POP SWAP6 POP SWAP1 SWAP2 SWAP3 SWAP4 SWAP5 SWAP6 JUMP JUMPDEST PUSH0 DUP2 SWAP1 POP SWAP2 SWAP1 POP JUMP JUMPDEST PUSH2 0x82 DUP2 PUSH2 0x70 JUMP JUMPDEST DUP3 MSTORE POP POP JUMP JUMPDEST PUSH0 PUSH20 0xFFFFFFFFFFFFFFFFFFFFFFFFFFFFFFFFFFFFFFFF DUP3 AND SWAP1 POP SWAP2 SWAP1 POP JUMP JUMPDEST PUSH0 PUSH2 0xB1 DUP3 PUSH2 0x88 JUMP JUMPDEST SWAP1 POP SWAP2 SWAP1 POP JUMP JUMPDEST PUSH2 0xC1 DUP2 PUSH2 0xA7 JUMP JUMPDEST DUP3 MSTORE POP POP JUMP JUMPDEST PUSH0 PUSH2 0xD1 DUP3 PUSH2 0x88 JUMP JUMPDEST SWAP1 POP SWAP2 SWAP1 POP JUMP JUMPDEST PUSH2 0xE1 DUP2 PUSH2 0xC7 JUMP JUMPDEST DUP3 MSTORE POP POP JUMP JUMPDEST PUSH0 PUSH1 0xC0 DUP3 ADD SWAP1 POP PUSH2 0xFA PUSH0 DUP4 ADD DUP10 PUSH2 0x79 JUMP JUMPDEST PUSH2 0x107 PUSH1 0x20 DUP4 ADD DUP9 PUSH2 0x79 JUMP JUMPDEST PUSH2 0x114 PUSH1 0x40 DUP4 ADD DUP8 PUSH2 0xB8 JUMP JUMPDEST PUSH2 0x121 PUSH1 0x60 DUP4 ADD DUP7 PUSH2 0x79 JUMP JUMPDEST PUSH2 0x12E PUSH1 0x80 DUP4 ADD DUP6 PUSH2 0x79 JUMP JUMPDEST PUSH2 0x13B PUSH1 0xA0 DUP4 ADD DUP5 PUSH2 0xD8 JUMP JUMPDEST SWAP8 SWAP7 POP POP POP POP POP POP POP JUMP INVALID LOG2 PUSH5 0x6970667358 0x22 SLT KECCAK256 JUMPI STATICCALL PUSH3 0x4653CD PUSH6 0x506F9DBF0C95 PUSH10 0x5F4AA3777A699CE9A3B SWAP6 RJUMP 0x93F1 0xEB ADDMOD STATICCALL SWAP8 PUSH5 0x736F6C6343 STOP ADDMOD 0x1E STOP CALLER "
				},
				"gasEstimates": {
					"creation": {
						"codeDepositCost": "76000",
						"executionCost": "121",
						"totalCost": "76121"
					},
					"external": {
						"demo()": "infinite"
					}
				},
				"methodIdentifiers": {
					"demo()": "01725a0b"
				}
			},
			"storageLayout": {
				"storage": [],
				"types": null
			},
			"userdoc": {
				"kind": "user",
				"methods": {},
				"version": 1
			}
		}
	}
}